:100000000C9436000C945E000C945E000C945E0020
:100010000C945E000C945E000C945E000C945E00E8
:100020000C945E000C945E000C945E000C945E00D8
:100030000C945E000C945E000C945E000C945E00C8
:100040000C942A040C945E000C949A040C9474048E
:100050000C945E000C945E000C945E000C945E00A8
:100060000C945E000C945E00CC04240611241FBE88
:10007000CFEFD8E0DEBFCDBF11E0A0E0B1E0EAE90C
:10008000F1E102C005900D92AA34B107D9F722E040
:10009000AAE4B1E001C01D92A733B207E1F710E076
:1000A000C5E3D0E004C02197FE010E944606C43398
:1000B000D107C9F70E943A050C94C0080C940000BF
:1000C0003FB7F8948091500190915101A091520155
:1000D000B091530126B5A89B05C02F3F19F001969A
:1000E000A11DB11D3FBFBA2FA92F982F8827820FBE
:1000F000911DA11DB11DBC01CD0142E0660F771F0E
:10010000881F991F4A95D1F708958F929F92AF92B9
:10011000BF92CF92DF92EF92FF920E9460004B015C
:100120005C0188EEC82E83E0D82EE12CF12C0E94D1
:100130006000DC01CB0188199909AA09BB09883E36
:100140009340A105B10558F021E0C21AD108E10899
:10015000F10888EE880E83E0981EA11CB11CC11422
:10016000D104E104F10419F7FF90EF90DF90CF90F4
:10017000BF90AF909F908F9008950895CF92DF9297
:10018000EF92FF920F931F93CF93DF936C017A014D
:100190008B01C0E0D0E0CE15DF0589F0D8016D916C
:1001A0008D01D601ED91FC910190F081E02DC60109
:1001B0000995892B11F47E0102C02196ECCFC7016D
:1001C000DF91CF911F910F91FF90EF90DF90CF9033
:1001D0000895FC01918D828D981761F0828DDF0169
:1001E000A80FB11D5D968C91928D9F5F9F73928F2A
:1001F00090E008958FEF9FEF0895FC01918D828D1F
:10020000981731F0828DE80FF11D858D90E00895EB
:100210008FEF9FEF0895FC01918D228D892F90E043
:10022000805C9F4F821B91098F739927089584E505
:1002300091E00E940B0121E0892B09F420E0822F3C
:100240000895FC01848DDF01A80FB11DA35ABF4F93
:100250002C91848D90E001968F739927848FA689C5
:10026000B7892C93A089B1898C9180648C93938DEC
:10027000848D981306C00288F389E02D80818F7DDC
:1002800080830895EF92FF920F931F93CF93DF9394
:10029000EC0181E0888F9B8D8C8D981305C0E889D7
:1002A000F989808185FD24C0F62E0B8D10E00F5F4B
:1002B0001F4F0F731127E02E8C8DE8120CC00FB664
:1002C00007FCFACFE889F989808185FFF5CFCE0157
:1002D0000E942101F1CF8B8DFE01E80FF11DE35A41
:1002E000FF4FF0820B8FEA89FB898081806207C013
:1002F000EE89FF896083E889F98980818064808341
:1003000081E090E0DF91CF911F910F91FF90EF90EE
:100310000895CF93DF93EC01888D8823C9F0EA8993
:10032000FB89808185FD05C0A889B9898C9186FDEE
:100330000FC00FB607FCF5CF808185FFF2CFA889EB
:10034000B9898C9185FFEDCFCE010E942101E7CFC5
:10035000DF91CF910895CF93DF93009779F0FC015F
:1003600001900020E9F73197AF01481B590BBC0100
:1003700084E591E00E94BE00EC0102C0C0E0D0E044
:1003800042E050E066E171E084E591E00E94BE0049
:100390008C0F9D1FDF91CF910895CF93DF93DC01E8
:1003A000ED91FC91EB01A881B981309711F0109784
:1003B000C9F4109759F0EB012C813D81232B31F0CA
:1003C0008C9190E091958195910914C0309781F0BE
:1003D000DC0114968D919C911597892B49F08081B1
:1003E00090E008C0BD01CF01DF91CF910C9451087E
:1003F00080E090E0DF91CF9108950E9443080F9331
:100400001F93CF93DF93EC0188819981009729F0A6
:100410002A813B812617370788F48B016F5F7F4F56
:100420000E947907009761F0998388831B830A8370
:100430002C813D81232B11F4FC01108281E001C04D
:1004400080E0DF91CF911F910F9108950F931F933B
:10045000CF93DF9300D0CDB7DEB789831A820091A6
:100460003102109132020F5F1F4FB8018DE292E00E
:100470000E94FF018823A1F020912D0230912E02CD
:100480008091310290913202BE016F5F7F4F820FE7
:10049000931F0E945A08109332020093310281E0A8
:1004A0000F900F90DF91CF911F910F910895CF93EF
:1004B000DF93EC0188819981009711F00E94E10699
:1004C000198218821D821C821B821A82DF91CF91B1
:1004D0000895EF92FF920F931F93CF93DF93EC0158
:1004E0007B018A01BA010E94FF01811104C0CE0183
:1004F0000E94570207C01D830C83B7018881998130
:100500000E945A08CE01DF91CF911F910F91FF9069
:10051000EF900895CF93DF93EC016115710559F0C9
:10052000FB0101900020E9F73197AF01461B570B03
:100530000E94690202C00E945702CE01DF91CF9152
:100540000895FB01DC0111961C921E9213961C92D9
:100550001E92129715961C921E9214978617970753
:1005600049F0608171816115710521F044815581E7
:100570000C9469020895FC01118210821382128288
:10058000158214826115710551F0FB010190002064
:10059000E9F73197AF01461B570B0C946902089598
:1005A000FC01808191810C94E1068F929F92AF9221
:1005B000BF92CF92DF92EF92FF920F931F93CF9350
:1005C000DF93CDB7DEB72C970FB6F894DEBF0FBE22
:1005D000CDBF10914A01112309F403C184E591E0D4
:1005E0000E940B01892B59F084E591E00E94E900FB
:1005F0008D30A1F38A3091F30E942602EFCF6DE295
:1006000072E0CE0107960E94A10281EFA82E81E040
:10061000B82E95E1C92E92E0D92E0B851C85F501E7
:10062000408951890417150708F487C0EF80F884C2
:10063000E114F10409F481C0848495848114910447
:1006400009F47BC0B401C7010E946108892B09F03D
:1006500074C00115110549F0B401C7010E946F086B
:10066000009719F08E199F0902C08FEF9FEFF501D7
:10067000E088F188E80EF91E0E151F0528F49E2D5E
:100680008F2D7801092F182F68E171E0CE010196B6
:100690000E94BB028B859C85E816F906C0F4801782
:1006A000910708F48C01EF81F885E00FF11F90802D
:1006B00010826F8178856E0D7F1DCE0101960E949C
:1006C0008A028F819885FC01E00FF11F9082F6016C
:1006D000808191810097B1F069817A8161157105FE
:1006E00079F0428153812D813E814217530740F0BA
:1006F0000E945A088D819E81F6019583848313C0E0
:100700000E94E10689819A81F601918380838B8121
:100710009C81938382838D819E81958384831A82B9
:1007200019821C821B821E821D82CE0101960E94AC
:10073000D00289E191E00E94AB01F6E0AF0EB11C5E
:1007400086E0C80ED11CEDE2CE16E2E0DE0609F02E
:1007500064CFCE0107960E94D0026DE272E0CE0116
:1007600001960E94A1022D813E818091FB01909112
:10077000FC012817390749F467EF71E0CE010196B3
:100780000E94CD0111E0892B09F010E0CE01019605
:100790000E94D002112331F089E191E00E94AB0167
:1007A00010924A0168E171E08DE292E00E948A02B3
:1007B0002C960FB6F894DEBF0FBECDBFDF91CF9160
:1007C0001F910F91FF90EF90DF90CF90BF90AF906F
:1007D0009F908F90089584E591E00E94E9008D300C
:1007E00039F484E591E00E940B01892BA1F705C043
:1007F0008A30B9F30E942602F4CF6DE272E0CE0196
:1008000001960E94A1022D813E818091F501909177
:10081000F6012817390751F461EF71E0CE01019616
:100820000E94CD0111E0892B09F010E010934A01DC
:10083000CE0101960E94D002112309F4B3CF89E1C1
:1008400091E00E94AB01AECF0E94170181110C9480
:10085000D50208951F920F920FB60F9211242F9375
:100860003F938F939F93AF93BF9380914C0190914F
:100870004D01A0914E01B0914F0130914B0123E009
:10088000230F2D3720F40196A11DB11D05C026E8C8
:10089000230F0296A11DB11D20934B0180934C01A3
:1008A00090934D01A0934E01B0934F018091500160
:1008B00090915101A0915201B09153010196A11D57
:1008C000B11D8093500190935101A0935201B093B8
:1008D0005301BF91AF919F918F913F912F910F90B5
:1008E0000FBE0F901F9018951F920F920FB60F9288
:1008F00011242F933F934F935F936F937F938F9325
:100900009F93AF93BF93EF93FF9384E591E00E9491
:100910002101FF91EF91BF91AF919F918F917F91B5
:100920006F915F914F913F912F910F900FBE0F905C
:100930001F9018951F920F920FB60F9211242F93AC
:100940008F939F93EF93FF93E0916401F091650182
:100950008081E0916A01F0916B0182FD12C090816B
:1009600080916D018F5F8F7320916E01821751F01E
:10097000E0916D01F0E0EC5AFE4F958F80936D0190
:1009800001C08081FF91EF919F918F912F910F90E6
:100990000FBE0F901F901895E4E5F1E013821282CC
:1009A00088EE93E0A0E0B0E084839583A683B783CC
:1009B0008AE091E09183808385EC90E0958784873D
:1009C00084EC90E09787868780EC90E0918B808B19
:1009D00081EC90E0938B828B82EC90E0958B848B02
:1009E00086EC90E0978B868B118E128E138E148E70
:1009F00068E171E08DE292E00E94BB0268E171E083
:100A000085E192E00E94BB0268E171E08BE192E037
:100A10000E94BB0268E171E081E292E00E94BB02A9
:100A200068E171E087E292E00E94BB026CE171E054
:100A300081EF91E00E94BB026FE171E087EF91E0EE
:100A40000E94BB0263E271E08DEF91E00E94BB0265
:100A500069E271E083E092E00E94BB0261E371E031
:100A600089E092E00E94BB0269E371E08FE092E0CE
:100A70000C94BB02CF93DF9300D000D000D0CDB751
:100A8000DEB7789484B5826084BD84B5816084BD0E
:100A900085B5826085BD85B5816085BD80916E001C
:100AA000816080936E00109281008091810082604D
:100AB000809381008091810081608093810080918A
:100AC00080008160809380008091B1008460809379
:100AD000B1008091B00081608093B00080917A0075
:100AE000846080937A0080917A00826080937A009B
:100AF00080917A00816080937A0080917A0080688A
:100B000080937A001092C100E0916401F091650138
:100B100082E08083E0916001F09161011082E091B8
:100B20006201F09163018FEC808310926C01E0917F
:100B30006801F091690186E08083E0916601F0919F
:100B40006701808180618083E0916601F091670197
:100B5000808188608083E0916601F09167018081E7
:100B600080688083E0916601F091670180818F7DCC
:100B7000808380914A01882309F458C005E112E07E
:100B8000E12CF12CD80114968D919C911597892B0D
:100B900009F441C0ED91FC9180818823E1F1B70116
:100BA00063507E4FCE0101960E94A102CD80DE806F
:100BB000BFEFCB1ADB0AB601CE0101960E94FF01FE
:100BC0008823E9F129813A818D819E8160E471E079
:100BD000820F931F0E945A08DE82CD824D815E8172
:100BE00069817A8184E591E00E94BE00CE01019680
:100BF0000E94D002F801448155816081718184E5B1
:100C000091E00E94BE0042E050E066E171E084E5C0
:100C100091E00E94BE00F6E0EF0EF11C0A5F1F4F4C
:100C200088E1E816F10409F0ADCF04C082E491E058
:100C30000E94AB010E9485000E9424049ACFCE013D
:100C400001960E945702CACFCF93DF93C5E1D2E04D
:100C50002697CE010E94D00281E0C13FD807C1F79C
:100C600087E292E00E94D00281E292E00E94D002EC
:100C70008BE192E00E94D00285E192E00E94D002D6
:100C80008DE292E0DF91CF910C94D002EE0FFF1F26
:100C90000590F491E02D0994CF93DF938230910574
:100CA00010F482E090E0E0913502F091360220E00D
:100CB00030E0C0E0D0E0309711F140815181481719
:100CC0005907C0F04817590761F482819381209732
:100CD00019F09B838A832BC0909336028093350250
:100CE00026C02115310519F04217530718F49A014F
:100CF000BE01DF01EF010280F381E02DDCCF211581
:100D0000310509F1281B390B2430310590F4129676
:100D10008D919C9113976115710521F0FB019383CF
:100D2000828304C09093360280933502FD0132968F
:100D300044C0FD01E20FF31F8193919322503109CA
:100D40002D933C933AC02091330230913402232BEF
:100D500041F4209102013091030130933402209339
:100D6000330220910001309101012115310541F438
:100D70002DB73EB74091040150910501241B350B5E
:100D8000E0913302F0913402E217F307A0F42E1B36
:100D90003F0B2817390778F0AC014E5F5F4F2417DF
:100DA000350748F04E0F5F1F5093340240933302D3
:100DB0008193919302C0E0E0F0E0CF01DF91CF9109
:100DC00008950F931F93CF93DF93009709F48CC07E
:100DD000FC01329713821282009135021091360283
:100DE0000115110581F420813181820F931F20911B
:100DF0003302309134022817390779F5F093340221
:100E0000E093330271C0D80140E050E0AE17BF0755
:100E100050F412962D913C911397AD012115310597
:100E200009F1D901F3CF9D01DA0133832283608177
:100E30007181860F971F8217930769F4EC0128814F
:100E40003981260F371F2E5F3F4F318320838A81E0
:100E50009B8193838283452B29F4F0933602E093A0
:100E6000350242C01396FC93EE931297ED0149911F
:100E700059919E01240F351FE217F30771F4808109
:100E80009181840F951F029611969C938E93828177
:100E9000938113969C938E931297E0E0F0E0D80133
:100EA00012968D919C911397009719F0F8018C017F
:100EB000F6CF8D919C9198012E5F3F4F820F931F2B
:100EC00020913302309134022817390769F43097A2
:100ED00029F4109236021092350202C01382128257
:100EE0001093340200933302DF91CF911F910F9141
:100EF0000895A0E0B0E0EFE7F7E00C948D08EC0176
:100F0000009721F4CB010E944C06B8C0FC01E60F0B
:100F1000F71F9C0122503109E217F30708F4ACC017
:100F2000D9010D911C91119706171707B0F00530E4
:100F3000110508F49FC0C80104978617970708F4A5
:100F400099C002501109061B170B019311936D9361
:100F50007C93CF010E94E1068DC05B01A01AB10A0B
:100F60004C01800E911EA0913502B091360240E0F6
:100F700050E0E12CF12C109709F44AC0A815B905EE
:100F8000D1F56D907C901197630182E0C80ED11C61
:100F9000CA14DB0480F1A3014A195B096A0182E0EB
:100FA000C80ED11C1296BC9012971396AC91B5E066
:100FB000CB16D10440F0B282A38351834083D90180
:100FC0006D937C930AC00E5F1F4FC301800F911F6A
:100FD000F90191838083EB2DFA2FE114F10431F0B4
:100FE000D7011396FC93EE93129744C0F093360208
:100FF000E09335023FC08D919C9111974817590796
:1010000008F4AC017D0112960D90BC91A02DB3CFD8
:10101000809133029091340288159905E1F44617C6
:101020005707C8F48091000190910101009741F4A5
:101030008DB79EB74091040150910501841B950B1B
:10104000E817F907C8F4F0933402E0933302F9018A
:10105000718360830FC0CB010E944C067C01009716
:1010600059F0A801BE010E944808CE010E94E10685
:10107000C70104C0CE0102C080E090E0CDB7DEB76A
:10108000EEE00C94A90881E090E0F8940C94C0087C
:10109000FB01DC0102C001900D9241505040D8F795
:1010A0000895FB01DC018D91019080190110D9F3A5
:1010B000990B0895FB01DC0101900D920020E1F7EE
:1010C0000895FB01DC014150504030F08D910190BA
:1010D000801919F40020B9F7881B990B0895FB01BA
:1010E00051915523A9F0BF01DC014D9145174111E4
:1010F000E1F759F4CD010190002049F04D914015E0
:101100004111C9F3FB014111EFCF81E090E001975C
:1011100008952F923F924F925F926F927F928F929B
:101120009F92AF92BF92CF92DF92EF92FF920F9376
:101130001F93CF93DF93CDB7DEB7CA1BDB0B0FB680
:10114000F894DEBF0FBECDBF09942A88398848883D
:101150005F846E847D848C849B84AA84B984C884D3
:10116000DF80EE80FD800C811B81AA81B981CE0FCA
:10117000D11D0FB6F894DEBF0FBECDBFED010895AF
:1011800010E0C5E3D0E004C0FE010E9446062196AF
:0A119000C633D107C9F7F894FFCF6A
:10119A00000037028000000000004201BE000B017F
:1011AA00E900FD0089010D0A004F4B00415400453A
:1011BA004E4400746578743D006272696768743DD4
:1011CA00007570646174653D00636F6C6F723D00F9
:0A11DA0020004E6F7468696E670014
:00000001FF
